{
  "contractName": "Lottery",
  "abi": [
    {
      "inputs": [],
      "stateMutability": "nonpayable",
      "type": "constructor"
    },
    {
      "inputs": [],
      "name": "manager",
      "outputs": [
        {
          "internalType": "address",
          "name": "",
          "type": "address"
        }
      ],
      "stateMutability": "view",
      "type": "function",
      "constant": true
    },
    {
      "inputs": [
        {
          "internalType": "uint256",
          "name": "",
          "type": "uint256"
        }
      ],
      "name": "players",
      "outputs": [
        {
          "internalType": "address payable",
          "name": "",
          "type": "address"
        }
      ],
      "stateMutability": "view",
      "type": "function",
      "constant": true
    },
    {
      "inputs": [],
      "name": "enter",
      "outputs": [],
      "stateMutability": "payable",
      "type": "function",
      "payable": true
    },
    {
      "inputs": [],
      "name": "getPlayers",
      "outputs": [
        {
          "internalType": "address payable[]",
          "name": "",
          "type": "address[]"
        }
      ],
      "stateMutability": "view",
      "type": "function",
      "constant": true
    },
    {
      "inputs": [],
      "name": "pickWinner",
      "outputs": [
        {
          "internalType": "address",
          "name": "",
          "type": "address"
        }
      ],
      "stateMutability": "nonpayable",
      "type": "function"
    },
    {
      "inputs": [],
      "name": "prizeWon",
      "outputs": [
        {
          "internalType": "uint256",
          "name": "",
          "type": "uint256"
        }
      ],
      "stateMutability": "nonpayable",
      "type": "function"
    }
  ],
  "bytecode": "0x608060405234801561000f575f80fd5b50335f806101000a81548173ffffffffffffffffffffffffffffffffffffffff021916908373ffffffffffffffffffffffffffffffffffffffff1602179055506109988061005c5f395ff3fe608060405260043610610054575f3560e01c8063481c6a75146100585780635d495aea1461008257806373a80336146100ac5780638b5b9ccc146100d6578063e97dcb6214610100578063f71d96cb1461010a575b5f80fd5b348015610063575f80fd5b5061006c610146565b60405161007991906104dd565b60405180910390f35b34801561008d575f80fd5b50610096610169565b6040516100a391906104dd565b60405180910390f35b3480156100b7575f80fd5b506100c06102d4565b6040516100cd919061050e565b60405180910390f35b3480156100e1575f80fd5b506100ea6102f9565b6040516100f791906105ef565b60405180910390f35b610108610384565b005b348015610115575f80fd5b50610130600480360381019061012b919061063d565b61042f565b60405161013d9190610677565b60405180910390f35b5f8054906101000a900473ffffffffffffffffffffffffffffffffffffffff1681565b5f805f9054906101000a900473ffffffffffffffffffffffffffffffffffffffff1673ffffffffffffffffffffffffffffffffffffffff163373ffffffffffffffffffffffffffffffffffffffff16146101f8576040517f08c379a00000000000000000000000000000000000000000000000000000000081526004016101ef90610710565b60405180910390fd5b5f60018054905061020761046a565b610211919061075b565b9050600181815481106102275761022661078b565b5b905f5260205f20015f9054906101000a900473ffffffffffffffffffffffffffffffffffffffff1673ffffffffffffffffffffffffffffffffffffffff166108fc4790811502906040515f60405180830381858888f19350505050158015610291573d5f803e3d5ffd5b50600181815481106102a6576102a561078b565b5b905f5260205f20015f9054906101000a900473ffffffffffffffffffffffffffffffffffffffff1691505090565b5f6102dd610169565b73ffffffffffffffffffffffffffffffffffffffff1631905090565b6060600180548060200260200160405190810160405280929190818152602001828054801561037a57602002820191905f5260205f20905b815f9054906101000a900473ffffffffffffffffffffffffffffffffffffffff1673ffffffffffffffffffffffffffffffffffffffff1681526020019060010190808311610331575b5050505050905090565b662386f26fc1000034116103cd576040517f08c379a00000000000000000000000000000000000000000000000000000000081526004016103c490610828565b60405180910390fd5b600133908060018154018082558091505060019003905f5260205f20015f9091909190916101000a81548173ffffffffffffffffffffffffffffffffffffffff021916908373ffffffffffffffffffffffffffffffffffffffff160217905550565b6001818154811061043e575f80fd5b905f5260205f20015f915054906101000a900473ffffffffffffffffffffffffffffffffffffffff1681565b5f3342600160405160200161048193929190610926565b604051602081830303815290604052805190602001205f1c905090565b5f73ffffffffffffffffffffffffffffffffffffffff82169050919050565b5f6104c78261049e565b9050919050565b6104d7816104bd565b82525050565b5f6020820190506104f05f8301846104ce565b92915050565b5f819050919050565b610508816104f6565b82525050565b5f6020820190506105215f8301846104ff565b92915050565b5f81519050919050565b5f82825260208201905092915050565b5f819050602082019050919050565b5f61055a8261049e565b9050919050565b61056a81610550565b82525050565b5f61057b8383610561565b60208301905092915050565b5f602082019050919050565b5f61059d82610527565b6105a78185610531565b93506105b283610541565b805f5b838110156105e25781516105c98882610570565b97506105d483610587565b9250506001810190506105b5565b5085935050505092915050565b5f6020820190508181035f8301526106078184610593565b905092915050565b5f80fd5b61061c816104f6565b8114610626575f80fd5b50565b5f8135905061063781610613565b92915050565b5f602082840312156106525761065161060f565b5b5f61065f84828501610629565b91505092915050565b61067181610550565b82525050565b5f60208201905061068a5f830184610668565b92915050565b5f82825260208201905092915050565b7f6f6e6c7920636f6e7472616374206f776e65722063616e2063686f6f736520745f8201527f68652077696e6e6572206f6620746865206c6f74746572790000000000000000602082015250565b5f6106fa603883610690565b9150610705826106a0565b604082019050919050565b5f6020820190508181035f830152610727816106ee565b9050919050565b7f4e487b71000000000000000000000000000000000000000000000000000000005f52601260045260245ffd5b5f610765826104f6565b9150610770836104f6565b9250826107805761077f61072e565b5b828206905092915050565b7f4e487b71000000000000000000000000000000000000000000000000000000005f52603260045260245ffd5b7f506c6561736520656e7465722065746865722067726561746572207468616e205f8201527f302e303100000000000000000000000000000000000000000000000000000000602082015250565b5f610812602483610690565b915061081d826107b8565b604082019050919050565b5f6020820190508181035f83015261083f81610806565b9050919050565b5f81549050919050565b5f819050815f5260205f209050919050565b5f815f1c9050919050565b5f73ffffffffffffffffffffffffffffffffffffffff82169050919050565b5f61089e61089983610862565b61086d565b9050919050565b5f6108b0825461088c565b9050919050565b5f600182019050919050565b5f6108cd82610846565b6108d78185610531565b93506108e283610850565b805f5b83811015610919576108f6826108a5565b6109008882610570565b975061090b836108b7565b9250506001810190506108e5565b5085935050505092915050565b5f6060820190506109395f8301866104ce565b61094660208301856104ff565b818103604083015261095881846108c3565b905094935050505056fea2646970667358221220dfdaa4d0095063a0c47d10082e6878a0fd6c9b1c6dbed2d76a4d1e0013652ed664736f6c63430008140033",
  "immutableReferences": {},
  "source": "//SPDX-License-Identifier:MIT\r\npragma solidity ^0.8.0;\r\n\r\ncontract Lottery {\r\n    address public manager;\r\n    address payable[] public players;\r\n    constructor() {\r\n        manager = msg.sender;\r\n    }\r\n    function enter() public payable {\r\n        require(msg.value > 0.01 ether,'Please enter ether greater than 0.01');\r\n        players.push(payable(msg.sender));\r\n    }\r\n    function getPlayers() public view returns(address payable[] memory) {\r\n        return players;\r\n    }\r\n    function random() private view returns(uint) {\r\n        return uint(keccak256(abi.encode(msg.sender, block.timestamp, players)));\r\n    }\r\n\r\n    function pickWinner() public restricted returns (address){\r\n        uint index = random() % players.length;\r\n        players[index].transfer(address(this).balance);\r\n        return players[index];\r\n    }\r\n\r\n    function resetGame() private {\r\n        players = new address payable[](0);\r\n    }\r\n    function prizeWon() public returns(uint) {\r\n        return pickWinner().balance;\r\n    }\r\n\r\n    modifier restricted {\r\n        require(msg.sender == manager,'only contract owner can choose the winner of the lottery');\r\n        _;\r\n    }\r\n}",
  "sourcePath": "F:\\Solidity Projects\\contracts\\lottery.sol",
  "compiler": {
    "name": "solc",
    "version": "0.8.20+commit.a1b79de6.Emscripten.clang"
  },
  "schemaVersion": "3.4.11",
  "updatedAt": "2023-06-26T17:10:14.318Z",
  "networkType": "ethereum",
  "devdoc": {
    "kind": "dev",
    "methods": {},
    "version": 1
  },
  "userdoc": {
    "kind": "user",
    "methods": {},
    "version": 1
  }
}