{
  "contractName": "Lottery",
  "abi": [
    {
      "inputs": [],
      "stateMutability": "nonpayable",
      "type": "constructor"
    },
    {
      "inputs": [],
      "name": "lastWinner",
      "outputs": [
        {
          "internalType": "address",
          "name": "",
          "type": "address"
        }
      ],
      "stateMutability": "view",
      "type": "function",
      "constant": true
    },
    {
      "inputs": [],
      "name": "manager",
      "outputs": [
        {
          "internalType": "address payable",
          "name": "",
          "type": "address"
        }
      ],
      "stateMutability": "view",
      "type": "function",
      "constant": true
    },
    {
      "inputs": [
        {
          "internalType": "uint256",
          "name": "",
          "type": "uint256"
        }
      ],
      "name": "players",
      "outputs": [
        {
          "internalType": "address payable",
          "name": "",
          "type": "address"
        }
      ],
      "stateMutability": "view",
      "type": "function",
      "constant": true
    },
    {
      "inputs": [],
      "name": "enter",
      "outputs": [],
      "stateMutability": "payable",
      "type": "function",
      "payable": true
    },
    {
      "inputs": [],
      "name": "getPlayers",
      "outputs": [
        {
          "internalType": "address payable[]",
          "name": "",
          "type": "address[]"
        }
      ],
      "stateMutability": "view",
      "type": "function",
      "constant": true
    },
    {
      "inputs": [],
      "name": "pickWinner",
      "outputs": [
        {
          "internalType": "address",
          "name": "",
          "type": "address"
        }
      ],
      "stateMutability": "nonpayable",
      "type": "function"
    },
    {
      "inputs": [],
      "name": "resetGame",
      "outputs": [],
      "stateMutability": "nonpayable",
      "type": "function"
    }
  ],
  "bytecode": "0x608060405234801561001057600080fd5b50336000806101000a81548173ffffffffffffffffffffffffffffffffffffffff021916908373ffffffffffffffffffffffffffffffffffffffff160217905550610b9c806100606000396000f3fe6080604052600436106100705760003560e01c8063bb4722191161004e578063bb472219146100f6578063e97dcb621461010d578063f71d96cb14610117578063fe1881841461015457610070565b8063481c6a75146100755780635d495aea146100a05780638b5b9ccc146100cb575b600080fd5b34801561008157600080fd5b5061008a61017f565b6040516100979190610915565b60405180910390f35b3480156100ac57600080fd5b506100b56101a3565b6040516100c291906108fa565b60405180910390f35b3480156100d757600080fd5b506100e061040b565b6040516100ed919061096e565b60405180910390f35b34801561010257600080fd5b5061010b610499565b005b610115610552565b005b34801561012357600080fd5b5061013e600480360381019061013991906106ee565b610600565b60405161014b9190610915565b60405180910390f35b34801561016057600080fd5b5061016961063f565b60405161017691906108fa565b60405180910390f35b60008054906101000a900473ffffffffffffffffffffffffffffffffffffffff1681565b60008060009054906101000a900473ffffffffffffffffffffffffffffffffffffffff1673ffffffffffffffffffffffffffffffffffffffff163373ffffffffffffffffffffffffffffffffffffffff1614610234576040517f08c379a000000000000000000000000000000000000000000000000000000000815260040161022b90610990565b60405180910390fd5b6000600180549050610244610665565b61024e9190610acf565b90506001818154811061028a577f4e487b7100000000000000000000000000000000000000000000000000000000600052603260045260246000fd5b9060005260206000200160009054906101000a900473ffffffffffffffffffffffffffffffffffffffff16600260006101000a81548173ffffffffffffffffffffffffffffffffffffffff021916908373ffffffffffffffffffffffffffffffffffffffff1602179055506001818154811061032f577f4e487b7100000000000000000000000000000000000000000000000000000000600052603260045260246000fd5b9060005260206000200160009054906101000a900473ffffffffffffffffffffffffffffffffffffffff1673ffffffffffffffffffffffffffffffffffffffff166108fc479081150290604051600060405180830381858888f1935050505015801561039f573d6000803e3d6000fd5b50600181815481106103da577f4e487b7100000000000000000000000000000000000000000000000000000000600052603260045260246000fd5b9060005260206000200160009054906101000a900473ffffffffffffffffffffffffffffffffffffffff1691505090565b6060600180548060200260200160405190810160405280929190818152602001828054801561048f57602002820191906000526020600020905b8160009054906101000a900473ffffffffffffffffffffffffffffffffffffffff1673ffffffffffffffffffffffffffffffffffffffff1681526020019060010190808311610445575b5050505050905090565b600160006104a7919061069b565b6000600260006101000a81548173ffffffffffffffffffffffffffffffffffffffff021916908373ffffffffffffffffffffffffffffffffffffffff16021790555060008054906101000a900473ffffffffffffffffffffffffffffffffffffffff1673ffffffffffffffffffffffffffffffffffffffff166108fc479081150290604051600060405180830381858888f1935050505015801561054f573d6000803e3d6000fd5b50565b662386f26fc10000341161059b576040517f08c379a0000000000000000000000000000000000000000000000000000000008152600401610592906109b0565b60405180910390fd5b6001339080600181540180825580915050600190039060005260206000200160009091909190916101000a81548173ffffffffffffffffffffffffffffffffffffffff021916908373ffffffffffffffffffffffffffffffffffffffff160217905550565b6001818154811061061057600080fd5b906000526020600020016000915054906101000a900473ffffffffffffffffffffffffffffffffffffffff1681565b600260009054906101000a900473ffffffffffffffffffffffffffffffffffffffff1681565b60003342600160405160200161067d93929190610930565b6040516020818303038152906040528051906020012060001c905090565b50805460008255906000526020600020908101906106b991906106bc565b50565b5b808211156106d55760008160009055506001016106bd565b5090565b6000813590506106e881610b4f565b92915050565b60006020828403121561070057600080fd5b600061070e848285016106d9565b91505092915050565b6000610723838361072f565b60208301905092915050565b61073881610a79565b82525050565b61074781610a79565b82525050565b61075681610a67565b82525050565b6000610767826109f5565b6107718185610a25565b935061077c836109d0565b8060005b838110156107ad5781516107948882610717565b975061079f83610a0b565b925050600181019050610780565b5085935050505092915050565b60006107c582610a00565b6107cf8185610a25565b93506107da836109e0565b8060005b83811015610812576107ef82610b2f565b6107f98882610717565b975061080483610a18565b9250506001810190506107de565b5085935050505092915050565b600061082c603883610a36565b91507f6f6e6c7920636f6e7472616374206f776e65722063616e2063686f6f7365207460008301527f68652077696e6e6572206f6620746865206c6f747465727900000000000000006020830152604082019050919050565b6000610892602483610a36565b91507f506c6561736520656e7465722065746865722067726561746572207468616e2060008301527f302e3031000000000000000000000000000000000000000000000000000000006020830152604082019050919050565b6108f481610aab565b82525050565b600060208201905061090f600083018461074d565b92915050565b600060208201905061092a600083018461073e565b92915050565b6000606082019050610945600083018661074d565b61095260208301856108eb565b818103604083015261096481846107ba565b9050949350505050565b60006020820190508181036000830152610988818461075c565b905092915050565b600060208201905081810360008301526109a98161081f565b9050919050565b600060208201905081810360008301526109c981610885565b9050919050565b6000819050602082019050919050565b60008190508160005260206000209050919050565b600081519050919050565b600081549050919050565b6000602082019050919050565b6000600182019050919050565b600082825260208201905092915050565b600082825260208201905092915050565b600073ffffffffffffffffffffffffffffffffffffffff82169050919050565b6000610a7282610a8b565b9050919050565b6000610a8482610a8b565b9050919050565b600073ffffffffffffffffffffffffffffffffffffffff82169050919050565b6000819050919050565b6000610ac8610ac383610b42565b610a47565b9050919050565b6000610ada82610aab565b9150610ae583610aab565b925082610af557610af4610b00565b5b828206905092915050565b7f4e487b7100000000000000000000000000000000000000000000000000000000600052601260045260246000fd5b6000610b3b8254610ab5565b9050919050565b60008160001c9050919050565b610b5881610aab565b8114610b6357600080fd5b5056fea2646970667358221220f855717ae218ae862f353c2ca80ccd9fca3728ff60cf94b398ee87018b2c4f2364736f6c63430008000033",
  "immutableReferences": {},
  "source": "//SPDX-License-Identifier:MIT\npragma solidity ^0.8.0;\n\ncontract Lottery {\n    address payable public manager;\n    address payable[] public players;\n    address public lastWinner;\n    constructor() {\n        manager = payable(msg.sender);\n    }\n    function enter() public payable {\n        require(msg.value > 0.01 ether,'Please enter ether greater than 0.01');\n        players.push(payable(msg.sender));\n    }\n    function getPlayers() public view returns(address payable[] memory) {\n        return players;\n    }\n    function random() private view returns(uint) {\n        return uint(keccak256(abi.encode(msg.sender, block.timestamp, players)));\n    }\n\n    function pickWinner() public restricted returns (address){\n        uint index = random() % players.length;\n        lastWinner = players[index];\n        players[index].transfer(address(this).balance);\n        return players[index];\n    }\n\n    function resetGame() public {\n        delete players;\n        lastWinner = address(0);\n        manager.transfer(address(this).balance);\n    }\n    modifier restricted {\n        require(msg.sender == manager,'only contract owner can choose the winner of the lottery');\n        _;\n    }\n}",
  "sourcePath": "F:\\react-ethereum\\contracts\\Lottery.sol",
  "compiler": {
    "name": "solc",
    "version": "0.8.0+commit.c7dfd78e.Emscripten.clang"
  },
  "schemaVersion": "3.4.14",
  "updatedAt": "2023-07-19T06:58:03.980Z",
  "networkType": "ethereum",
  "devdoc": {
    "kind": "dev",
    "methods": {},
    "version": 1
  },
  "userdoc": {
    "kind": "user",
    "methods": {},
    "version": 1
  }
}